:020000040800F2
:1000000070060020890100084D050008FD04000865
:1000100049050008A7020008E909000800000000DF
:100020000000000000000000000000009908000827
:10003000AB020008000000007708000885090008EE
:10004000A3010008A3010008A3010008A301000800
:10005000A3010008A3010008A3010008A3010008F0
:10006000A3010008A3010008A3010008A3010008E0
:10007000A3010008A3010008A3010008A3010008D0
:10008000A3010008A3010008A3010008A3010008C0
:10009000A3010008A3010008A3010008A3010008B0
:1000A000A3010008A3010008A3010008A3010008A0
:1000B000A3010008A3010008A3010008A301000890
:1000C000A3010008A3010008A3010008A301000880
:1000D000A3010008A3010008A3010008A301000870
:1000E000A3010008A3010008A301000800F002F822
:1000F00000F03AF80AA090E8000C82448344AAF188
:100100000107DA4501D100F02FF8AFF2090EBAE885
:100110000F0013F0010F18BFFB1A43F0010318473B
:10012000C4130000E4130000103A24BF78C878C15B
:10013000FAD8520724BF30C830C144BF04680C60ED
:10014000704700000023002400250026103A28BF35
:1001500078C1FBD8520728BF30C148BF0B60704739
:100160001FB51FBD10B510BD00F063F81146FFF7B5
:10017000F7FF00F03BFC00F081F803B4FFF7F2FF5B
:1001800003BC00F089F8000009488047094800478F
:10019000FEE7FEE7FEE7FEE7FEE7FEE7FEE7FEE737
:1001A000FEE7FEE704480549054A064B7047000094
:1001B00089090008ED00000870000020700600208A
:1001C000700200207002002010B5203AC0F00B80B1
:1001D000B1E81850203AA0E81850B1E81850A0E84B
:1001E0001850BFF4F5AF5FEA027C24BFB1E81850A5
:1001F000A0E8185044BF18C918C0BDE810405FEA15
:10020000827C24BF51F8043B40F8043B08BF704790
:10021000D20728BF31F8023B48BF11F8012B28BF95
:1002200020F8023B48BF00F8012B70477047704729
:100230007047754600F02CF8AE46050069465346F7
:1002400020F00700854618B020B5FFF7ABFFBDE8EA
:1002500020404FF000064FF000074FF000084FF02D
:10026000000B21F00701AC46ACE8C009ACE8C009BE
:10027000ACE8C009ACE8C0098D46704710B504462B
:10028000AFF300802046BDE81040FFF776BF0000C6
:10029000004870471000002001491820ABBEFEE75F
:1002A00026000200704700BFFEE7704700EBC00168
:1002B000C9004FF0E02251610021916105211161D7
:1002C00000BF4FF0E021096901F480310029F8D026
:1002D00004214FF0E022116170472DE9F041024600
:1002E00000250026002000230024002791F803C0E9
:1002F0000CF00F0591F803C00CF0100CBCF1000FCE
:1003000003D091F802C04CEA050591F800C0BCF199
:10031000000F31D0146800202BE04FF0010C0CFAD4
:1003200000F3B1F800C00CEA03069E4220D183001E
:100330004FF00F0C0CFA03F7BC4305FA03FC4CEA30
:10034000040491F803C0BCF1280F06D14FF0010C52
:100350000CFA00FCC2F814C00AE091F803C0BCF12A
:10036000480F05D14FF0010C0CFA00FCC2F810C088
:10037000401C0828D1D31460B1F800C0BCF1FF0FB5
:1003800034DD546800202EE000F1080C4FF0010825
:1003900008FA0CF3B1F800C00CEA03069E4221D122
:1003A00083004FF00F0C0CFA03F7BC4305FA03FC73
:1003B0004CEA040491F803C0BCF1280F05D100F108
:1003C000080C08FA0CF8C2F8148091F803C0BCF1CC
:1003D000480F07D100F1080C4FF0010808FA0CF89B
:1003E000C2F81080401C0828CED35460BDE8F081CC
:1003F0000246002093680B400BB1012000E0002072
:100400007047416170470AB1016100E04161704786
:100410002DE9F04100F03EF81249086008460068F6
:100420001149096888421BD90E4800680F490860C5
:10043000084600680C490968401A0C4908600846DB
:10044000006800F0F3FC804600F0C4FC0646084A51
:10045000084B00F0E5FA044600F03AFC0349086056
:10046000BDE8F0810400002000000020080000200A
:100470009A9999999999B93F10B504462246402115
:100480000348FFF7C0FF0A20FFF710FF10BD000070
:100490000008014070B50020FFF7EEFF002400BF08
:1004A00080211548FFF7A4FF0028F9D1002514E0AA
:1004B0000120FFF7E1FF64000120FFF7F7FE0020B5
:1004C000FFF7DAFF80210C48FFF792FF00B1641CB0
:1004D0000120FFF7EBFE681CC5B2182DE8DB0120F8
:1004E000FFF7CAFF84F400040120FFF7DFFE0020BD
:1004F000FFF7C2FF204670BD0008014000BFFEE7C5
:1005000008B50121042000F0B7F910208DF8030090
:1005100003208DF802008020ADF8000048208DF8FF
:10052000030069460748FFF7D8FE4020ADF80000F9
:1005300069460448FFF7D1FE40210248FFF761FFFA
:1005400008BD00000008014000BFFEE7704770B51D
:1005500000240EE00021204600F0EFF8002504E022
:10056000002000F078F9681CC5B2802DF8DB601C13
:10057000C4B2082CEEDB70BD08B50121082000F0E4
:100580007BF914208DF8030003208DF802004FF44E
:100590008070ADF8000069460A48FFF79EFE4FF4F0
:1005A0000070ADF8000069460648FFF796FE01228C
:1005B00011020448FFF727FF012251020148FFF70B
:1005C00022FF08BD000C014070B50546002415E06F
:1005D0008020204100EA05024FF400710E48FFF729
:1005E00012FF012211020C48FFF70DFF00224FF409
:1005F00080710948FFF707FF601CC4B2082CE7DBD5
:10060000012211020448FFF7FEFE00224FF4807120
:100610000148FFF7F8FE70BD000C014010B5012243
:1006200051020A48FFF7EFFE012211020748FFF7C7
:10063000EAFE00224FF400710448FFF7E4FE0022B6
:100640004FF480710148FFF7DEFE10BD000C014041
:1006500010B500224FF400710648FFF7D4FE0122C6
:1006600011020448FFF7CFFE012251020148FFF7B3
:10067000CAFE10BD000C014070B5002406E0002544
:1006800000E06D1CB5F57A7FFBD3641CB4F57A7F6E
:10069000F5D3FFF771FFAE2000F0CDF8D52000F0C4
:1006A000CAF8802000F0C7F8A82000F0C4F83F2066
:1006B00000F0C1F8D32000F0BEF8002000F0BBF835
:1006C000402000F0B8F8A12000F0B5F8C82000F0F4
:1006D000B2F8DA2000F0AFF8122000F0ACF8812078
:1006E00000F0A9F8CF2000F0A6F8D92000F0A3F878
:1006F000F12000F0A0F8DB2000F09DF8302000F0A1
:100700009AF8A42000F097F8A62000F094F88D2025
:1007100000F091F8142000F08EF8AF2000F08BF874
:10072000FFF715FF70BD10B50246012000E05043F1
:100730000B1EA1F10101FAD110BD70B505460C46A2
:1007400045F0B00000F077F8102141EA141000F0F5
:1007500072F804F00F0000F06EF870BD2DE9F04162
:1007600005460E461746721ED206110E6A1E520626
:10077000100EFFF7E2FF002409E0A7F12001134A61
:1007800002EB0111085D00F066F8601CC4B2082C91
:10079000F3DB721ED206110E6A1E012303EB420226
:1007A000D0B2FFF7CAFF00240BE0A7F12001074AEF
:1007B00002EB011204F10801505C00F04CF8601CDF
:1007C000C4B2082CF1DBBDE8F0810000DE0E0008A9
:1007D0002DE9F0478146884615461E46002D06DB6A
:1007E0002B2241464846FFF7B9FF2F4605E02D2250
:1007F00041464846FFF7B2FF6F42002417E0301B26
:10080000411E0A20FFF78FFFB7FBF0F00A21B0FB73
:10081000F1F201FB120000F1300A08EB0400401C69
:10082000C1B252464846FFF799FF601CC4B2B442B9
:10083000E5DBBDE8F08710B50446FFF7EFFE782052
:10084000FFF7C2FE0020FFF7BFFE2046FFF7BCFE09
:10085000FFF7FEFE10BD10B50446FFF7DFFE78205F
:10086000FFF7B2FE4020FFF7AFFE2046FFF7ACFED9
:10087000FFF7EEFE10BD704729B1064A92690243A8
:10088000044B9A6104E0034A92698243014B9A61E6
:100890007047000000100240704710B500F002F8E9
:1008A00010BD00000CB50020019000903348006896
:1008B00040F480303149086000BF3048006800F4DF
:1008C000003000900198401C0190009818B90198E0
:1008D000B0F5A06FF1D12948006800F4003010B1E4
:1008E0000120009001E0002000900098012843D1F1
:1008F0002348006840F0100021490860084600685D
:1009000020F0030008600846006840F0020008601C
:100910001A484068194948600846406848600846D7
:10092000406840F4806048600846406820F47C10CD
:1009300048600846406840F4E8104860084600688F
:1009400040F08070086000BF0C48006800F0007044
:100950000028F9D00948406820F0030007494860A2
:100960000846406840F00200486000BF0348406805
:1009700000F00C000828F9D10CBD00000010024066
:10098000002002407047000010B51348006840F096
:1009900001001149086008464068104908400E49A6
:1009A0004860084600680E4908400B490860084640
:1009B000006820F4802008600846406820F4FE00AB
:1009C00048604FF41F008860FFF767FF4FF000603A
:1009D0000449086010BD0000001002400000FFF84C
:1009E000FFFFF6FE08ED00E000BFFEE786B0FFF770
:1009F00043FEFFF785FD1422074901A8FFF7E4FB3A
:100A000000BF08E0FFF704FD092304480121026844
:100A10000846FFF7DDFEF5E7D014000808000020C7
:100A20002DE9C04130B4DFF8A0C23CEA111418BF70
:100A30003CEA131400F0EC8081EA03051CEA11146F
:100A400044EAD57418BF1CEA131500F0C780A4EB64
:100A500005044FF0004545EAC12145EAC32341EAB8
:100A6000505143EA525304F17F74994204F5003423
:100A70004FEAC0204FEAC22208BF904200F09C809B
:100A80004FEA13650FF24016765D4FEA134506FBF9
:100A900005F7C7F1807706FB07F74FEAD737A7FBC3
:100AA00003687642C8F58038A7FB06CE38BFA8F1A8
:100AB000010807FB08E64FF0000EA6FB028CE6FBE0
:100AC00003CEDCF1000CCEF1004E38BFAEF1010ECA
:100AD000A6FB0C584FF000074FF00005E6FB0E8711
:100AE000A1FB08C6A0FB07CE16EB0E0645F10005DC
:100AF000E1FB076515F1E04E7EBFA4F580345FEAA7
:100B000046066D4116F1800745F100054FEA1727AB
:100B10004FEA066647EA0567A6F1DE46B6F1805F52
:100B20004FEA15251FD9384624F0010C05EBC47196
:100B3000BCF1FE6F01EB0C1102D8F0BCBDE80081E6
:100B400024425CBF01F5801E9EEAC47F02D4F0BC43
:100B5000BDE80081244238D4F0BCA1F1C041BDE819
:100B6000004100F030B94FEAD22242EA43524FEA44
:100B7000D323A7FB02864FEAD02040EA415007FB6F
:100B800003661EEA0E0F4FEAD12105FB026658BF2D
:100B9000A6EB0056B6EB00564FEA520E4EEAC37E65
:100BA00018EB0E0E56EB530EBDD518EB02085E4146
:100BB0007F1C55F10005B6E74FF480154FF0000794
:100BC0004FF000064FF00008ADE7F0BC4FF000001A
:100BD00001F1C04101F00041BDE8008111EA0C1FA4
:100BE0000CEA131500D00CE013EA0C1F00F025806E
:100BF0004FF00000F0BC81EA030101F00041BDE8C4
:100C00000081F0BCBDE8004181EA030100F0DBB8DF
:100C1000F0BCBDE8004170B500F087F8097EFC3EED
:100C200000F007B881EA03014FF0000001F0004135
:100C3000704781EA030100F0C6B8F0BCBDE800418E
:100C40004FF0000021497047FFFDFBF9F7F5F4F282
:100C5000F0EEEDEBE9E8E6E4E3E1E0DEDDDBDAD857
:100C6000D7D5D4D3D1D0CFCDCCCBCAC8C7C6C5C4B5
:100C7000C2C1C0BFBEBDBCBBBAB9B8B7B6B5B4B3CC
:100C8000B2B1B0AFAEADACABAAA9A8A8A7A6A5A4B7
:100C9000A3A3A2A1A09F9F9E9D9C9C9B9A9999987B
:100CA0009797969595949393929191908F8F8E8E1E
:100CB0008D8C8C8B8B8A89898888878786858584AB
:100CC00084838382828181800000FF070000F87F97
:100CD0004FEA1153A3F58063D3F11E03A8BFD3F1EC
:100CE000200C08DB4FF0004242EAC12252EA505287
:100CF00032FA03F0704709420BD4102BC4BF002016
:100D0000704703F5787CBCF1FF3F05D04FF0FF3012
:100D100070474FF00000704770B500F006F800BF54
:100D20004992248000207047F0E70EF1020E2EF069
:100D3000030E5EF8046B364205D4012A43EB03052B
:100D400015F5001F12D8012841EB010C1CF5001FFE
:100D50000CD80ED14FEAD17C15F5001F0CEB4C0CD2
:100D60000CF1020C08BF4CEBD37C04E04FF0080CF4
:100D700001E04FEAD37C0CEB4C0526FA05F606F0B1
:100D80000706B6F1040C06D20EEB860CBDE87040E7
:100D90004CF0010C6047DFE80CF0090B02024FF049
:100DA00000414FF00000A1F5002170BD194610462A
:100DB000012851EB010418BFD4F5001484BF0020B2
:100DC00001F0004170BD0808A0F500114FEA3101A3
:100DD0007047000043004FEAD30C4FEA3C0C4340FD
:100DE0001FBF40070CF1605113F0FE4F70471CF01D
:100DF000006F03D100200CF0004170470CF000435D
:100E000043EA507010B540EACC0000F022F800BF71
:100E1000000000924FEA0001FFF7D5BF4FF00041FC
:100E20004FF00000A1F5002170470000B0FA80F3F8
:100E300010FA03F2C3F19D030AD0D90501EB122089
:100E4000530638BF704700F1010008BF20F00100D1
:100E500070470EF1020E2EF0030E5EF8044B244292
:100E600004D44FEA4102B2F17F4F11D84FEA400358
:100E7000B3F17F4F0CD80ED14FEAD07CB2F17F4F47
:100E80000CEB4C0C0CF1020C08BF4CEBD17C04E0D9
:100E90004FF0080C01E04FEAD17C0CEB4C0324FA34
:100EA00003F404F00704B4F1040C06D20EEB840C36
:100EB000BDE810404CF0010C6047DFE80CF007087B
:100EC00002024FF00040A0F5800010BD084642002D
:100ED00018BFD2F1807288BF00F0004010BD000042
:100EE0000000000000000000000000000000000002
:100EF00000F8000000000000003330000000001087
:100F00000C06100C0600000000000000000040C0AD
:100F10007840C0784000043F04043F04040000709F
:100F200088FC08300000001820FF211E0000F00897
:100F3000F000E018000000211C031E211E0000F03C
:100F40000888700000001E21232419272110101684
:100F50000E00000000000000000000000000000083
:100F600000E0180402000000000718204000000202
:100F70000418E00000000040201807000000404076
:100F800080F0804040000202010F010202000000D8
:100F900000F0000000000101011F0101010000003C
:100FA00000000000000080B07000000000000000A1
:100FB000000000000000000101010101010100002A
:100FC00000000000000000303000000000000000C1
:100FD000000080601804006018060100000000E0B6
:100FE00010080810E000000F102020100F00001063
:100FF00010F8000000000020203F202000000070BA
:1010000008080888700000302824222130000030B1
:101010000888884830000018202020110E000000A9
:10102000C02010F8000000070424243F240000F82A
:101030000888880808000019212020110E0000E00F
:10104000108888180000000F112020110E000038B1
:101050000808C83808000000003F000000000070C9
:10106000880808887000001C222121221C0000E052
:1010700010080810E0000000312222110F000000CB
:1010800000C0C00000000000003030000000000080
:1010900000800000000000008060000000000000F0
:1010A0008040201008000001020408102000404089
:1010B00040404040400004040404040404000008CC
:1010C0001020408000000020100804020100007081
:1010D00048080808F0000000003036010000C03069
:1010E000C828E810E0000718272423140B0000008C
:1010F000C038E0000000203C23020227382008F816
:10110000888888700000203F202020110E00C03009
:10111000080808083800071820202010080008F8E0
:1011200008080810E000203F202020100F0008F8D9
:101130008888E8081000203F20202320180008F8A5
:101140008888E8081000203F200003000000C0301D
:1011500008080838000007182020221E020008F89E
:1011600008000008F808203F210101213F20000865
:1011700008F8080800000020203F202000000000A0
:101180000808F8080800C08080807F00000008F888
:1011900088C028180800203F20012638200008F8C1
:1011A000080000000000203F20202020300008F828
:1011B000F800F8F80800203F003F003F200008F842
:1011C00030C00008F808203F200007183F00E0105A
:1011D00008080810E0000F10202020100F0008F869
:1011E00008080808F000203F210101010000E0107C
:1011F00008080810E0000F18242438504F0008F8A1
:10120000888888887000203F2000030C3020007000
:101210008808080838000038202121221C001808FE
:1012200008F8080818000000203F2000000008F817
:1012300008000008F808001F202020201F00087860
:10124000880000C83808000007380E010000F808C0
:1012500000F80008F800033C0700073C03000818EA
:1012600068808068180820302C03032C3020083850
:10127000C800C83808000000203F20000000100807
:101280000808C8380800203826212020180000004F
:1012900000FE020202000000007F40404000000CFF
:1012A00030C000000000000000010638C00000024D
:1012B0000202FE000000004040407F0000000000ED
:1012C0000402020204000000000000000000000010
:1012D000000000000000808080808080808000020C
:1012E00002040000000000000000000000000000F8
:1012F0008080808000000019242222223F2008F8EC
:10130000008080000000003F112020110E0000002E
:10131000008080800000000E1120202011000000BD
:1013200000808088F800000E112020103F2000006F
:10133000808080800000001F222222221300008073
:1013400080F0888888180020203F202000000000BE
:10135000808080808000006B94949493600008F8F3
:10136000008080800000203F210000203F2000807E
:101370009898000000000020203F2020000000007E
:1013800000809898000000C08080807F000008F8EE
:10139000000080808000203F24022D3020000008C3
:1013A00008F8000000000020203F2020000080807E
:1013B000808080808000203F20003F20003F808090
:1013C000008080800000203F210000203F2000009E
:1013D000808080800000001F202020201F0080804F
:1013E00000808000000080FFA12020110E0000007E
:1013F000008080808000000E112020A0FF8080806F
:1014000080008080800020203F212000010000001B
:1014100080808080800000332424242419000080F0
:1014200080E0808000000000001F202000008080FD
:10143000000000808000001F202020103F208080BE
:1014400080000080808000010E300806010080804E
:101450000080008080800F300C030C300F00008073
:101460008000808080000020312E0E31200080809E
:1014700080000080808080818E70180601000080CE
:101480008080808080000021302C222130000000EC
:101490000000807C020200000000003F404000008D
:1014A0000000FF00000000000000FF00000000023C
:1014B000027C800000000040403F00000000000669
:1014C000010102020404000000000000000000000E
:1014D0000B00000016000000210000002C0000009E
:1014E0003700000004150008000000201000000074
:1014F00028010008141500081000002060060000F4
:10150000440100080000000000000000000000008E
:0415100000000000D7
:04000005080000ED02
:00000001FF
