:020000040800F2
:10000000780600208901000865060008AD03000895
:100010000B05000843020008110E00080000000054
:10002000000000000000000000000000F90A0008C5
:100030004702000800000000B50A0008290C00086B
:10004000A3010008A3010008A3010008A301000800
:10005000A3010008A3010008A3010008A3010008F0
:10006000A3010008A3010008A3010008A3010008E0
:10007000A3010008A3010008A3010008A3010008D0
:10008000A3010008A3010008A3010008A3010008C0
:10009000A3010008A3010008A3010008A3010008B0
:1000A000A3010008A3010008A3010008A3010008A0
:1000B000A3010008A3010008A3010008A301000890
:1000C000A3010008A3010008A3010008A301000880
:1000D000A3010008A3010008A3010008A301000870
:1000E000A3010008A3010008A301000800F002F822
:1000F00000F03AF80AA090E8000C82448344AAF188
:100100000107DA4501D100F02FF8AFF2090EBAE885
:100110000F0013F0010F18BFFB1A43F0010318473B
:100120007C1A00009C1A0000103A24BF78C878C1DD
:10013000FAD8520724BF30C830C144BF04680C60ED
:10014000704700000023002400250026103A28BF35
:1001500078C1FBD8520728BF30C148BF0B60704739
:100160001FB51FBD10B510BD00F031F81146FFF7E7
:10017000F7FF00F04FFE00F04FF803B4FFF7F2FF77
:1001800003BC00F057F800000948804709480047C1
:10019000FEE7FEE7FEE7FEE7FEE7FEE7FEE7FEE737
:1001A000FEE7FEE704480549054A064B7047000094
:1001B0002D0C0008ED0000087800002078060020D3
:1001C000780200207802002070477047704775461B
:1001D00000F02CF8AE4605006946534620F00700B3
:1001E000854618B020B5FFF7DDFFBDE820404FF091
:1001F00000064FF000074FF000084FF0000B21F011
:100200000701AC46ACE8C009ACE8C009ACE8C009DD
:10021000ACE8C0098D46704710B50446AFF30080C6
:100220002046BDE81040FFF7A8BF00000048704717
:100230001400002001491820ABBEFEE72600020092
:10024000704700BFFEE7704700EBC001C9004FF0E8
:10025000E0225161002191610521116100BF4FF041
:10026000E021096901F480310029F8D004214FF020
:10027000E022116170472DE9F04102460025002679
:10028000002000230024002791F803C00CF00F0584
:1002900091F803C00CF0100CBCF1000F03D091F8E2
:1002A00002C04CEA050591F800C0BCF1000F31D046
:1002B000146800202BE04FF0010C0CFA00F3B1F8A9
:1002C00000C00CEA03069E4220D183004FF00F0CC1
:1002D0000CFA03F7BC4305FA03FC4CEA040491F85A
:1002E00003C0BCF1280F06D14FF0010C0CFA00FC42
:1002F000C2F814C00AE091F803C0BCF1480F05D160
:100300004FF0010C0CFA00FCC2F810C0401C082889
:10031000D1D31460B1F800C0BCF1FF0F34DD5468D4
:1003200000202EE000F1080C4FF0010808FA0CF351
:10033000B1F800C00CEA03069E4221D183004FF0C1
:100340000F0C0CFA03F7BC4305FA03FC4CEA040457
:1003500091F803C0BCF1280F05D100F1080C08FA90
:100360000CF8C2F8148091F803C0BCF1480F07D113
:1003700000F1080C4FF0010808FA0CF8C2F81080E0
:10038000401C0828CED35460BDE8F081024600200E
:1003900093680B400BB1012000E000207047016121
:1003A00070470AB1016100E04161704700BFFEE79C
:1003B0002DE9F05F06460F4690469946DDE90AAB07
:1003C0003B2000F06CF804463C2000F068F805463D
:1003D00045EA042000B230803D2000F060F8044679
:1003E0003E2000F05CF8054645EA042000B2388063
:1003F0003F2000F054F80446402000F050F8054635
:1004000045EA042000B2A8F80000432000F047F8B5
:100410000446442000F043F8054645EA042000B2B3
:10042000A9F80000452000F03AF80446462000F004
:1004300036F8054645EA042000B2AAF80000472035
:1004400000F02DF80446482000F029F8054645EA5A
:10045000042000B2ABF80000BDE8F09F10B5752095
:1004600000F01DF810BD10B500F052F801216B200E
:1004700000F034F800216C2000F030F80921192038
:1004800000F02CF806211A2000F028F818211B2073
:1004900000F024F818211C2000F020F810BD70B5E1
:1004A000044600F0A9F8D02000F091F800F05AF8C6
:1004B000204600F08CF800F055F800F09DF8D120AF
:1004C00000F085F800F04EF800F05BF805460120DA
:1004D00000F071F800F09EF8284670BD70B5054632
:1004E0000C4600F089F8D02000F071F800F03AF8DE
:1004F000284600F06CF800F035F8204600F067F868
:1005000000F030F800F086F870BD00BFFEE7000094
:1005100008B50121082000F0DFFA14208DF803004F
:100520004FF44060ADF8000003208DF802006946EA
:100530000448FFF7A0FE4FF440610248FFF72FFF89
:1005400008BD0000000C014010B54FF400610448E4
:10055000FFF71CFF04460A20FFF776FE204610BD79
:10056000000C014010B5012000F06EF8012000F0F1
:100570005DF8FFF7E9FF0446002000F057F8204639
:1005800010BD70B50025012000F05EF800240EE0DB
:10059000012000F04BF8FFF7D7FF012802D180209F
:1005A00020410543002000F041F8601CC4B2082C33
:1005B000EEDB284670BD10B50446204600F044F836
:1005C000012000F033F8002000F030F810BD70B5C5
:1005D000054600240DE08021214101EA050000F0DC
:1005E00033F8012000F022F8002000F01FF8601C12
:1005F000C4B2082CEFDB70BD10B5012000F024F868
:10060000012000F013F8002000F01EF8002000F098
:100610000DF810BD10B5002000F016F8012000F014
:1006200005F8012000F010F810BD000010B50446D8
:1006300022464FF480610348FFF7B3FE0A20FFF71C
:1006400003FE10BD000C014010B5044622464FF4D5
:1006500000610348FFF7A5FE0A20FFF7F5FD10BD76
:10066000000C0140704770B500240EE000212046C8
:1006700000F0EFF8002504E0002000F0B6F9681C57
:10068000C5B2802DF8DB601CC4B2082CEEDB70BD57
:1006900008B50121082000F01FFA14208DF803008E
:1006A00003208DF802004FF48070ADF80000694619
:1006B0000A48FFF7E0FD4FF40070ADF8000069460E
:1006C0000648FFF7D8FD012211020448FFF769FE32
:1006D000012251020148FFF764FE08BD000C0140F1
:1006E00070B50546002415E08020204100EA05028F
:1006F0004FF400710E48FFF754FE012211020C481E
:10070000FFF74FFE00224FF480710948FFF749FEC2
:10071000601CC4B2082CE7DB012211020448FFF779
:1007200040FE00224FF480710148FFF73AFE70BD91
:10073000000C014010B5012251020A48FFF731FEBA
:10074000012211020748FFF72CFE00224FF400712E
:100750000448FFF726FE00224FF480710148FFF79E
:1007600020FE10BD000C014010B500224FF40071B6
:100770000648FFF716FE012211020448FFF711FE9A
:10078000012251020148FFF70CFE10BD000C014090
:1007900070B5002406E0002500E06D1CB5F57A7FF9
:1007A000FBD3641CB4F57A7FF5D3FFF771FFAE205D
:1007B00000F00BF9D52000F008F9802000F005F9D1
:1007C000A82000F002F93F2000F0FFF8D32000F04D
:1007D000FCF8002000F0F9F8402000F0F6F8A12025
:1007E00000F0F3F8C82000F0F0F8DA2000F0EDF89F
:1007F000122000F0EAF8812000F0E7F8CF2000F0A6
:10080000E4F8D92000F0E1F8F12000F0DEF8DB2078
:1008100000F0DBF8302000F0D8F8A42000F0D5F884
:10082000A62000F0D2F88D2000F0CFF8142000F0C0
:10083000CCF8AF2000F0C9F8FFF715FF70BD10B578
:100840000246012000E050430B1EA1F10101FAD144
:1008500010BD70B505460C4645F0B00000F0B5F887
:10086000102141EA141000F0B0F804F00F0000F07D
:10087000ACF870BD2DE9F04105460E461746721ED4
:10088000D206110E6A1E5206100EFFF7E2FF002478
:1008900009E0A7F12001134A02EB0111085D00F005
:1008A000A4F8601CC4B2082CF3DB721ED206110E31
:1008B0006A1E012303EB4202D0B2FFF7CAFF0024F5
:1008C0000BE0A7F12001074A02EB011204F1080135
:1008D000505C00F08AF8601CC4B2082CF1DBBDE863
:1008E000F0810000AA1500082DE9F04781460E4668
:1008F00090461F4600241DE0381B411E1020FFF7C4
:100900009EFFB8FBF0F000F00F050A2D08DA05F1A4
:100910003000C2B23019C1B24846FFF7ABFF07E062
:1009200005F13700C2B23019C1B24846FFF7A2FF45
:10093000601CC4B2BC42DFDBBDE8F0872DE9F047A4
:100940008146884615461E46002D06DB2B22414671
:100950004846FFF78FFF2F4605E02D2241464846C7
:10096000FFF788FF6F42002417E0301B411E0A206A
:10097000FFF765FFB7FBF0F00A21B0FBF1F201FBD6
:10098000120000F1300A08EB0400401CC1B25246CC
:100990004846FFF76FFF601CC4B2B442E5DBBDE818
:1009A000F0872DE9F04107460E461546002407E082
:1009B0002A5D3019C1B23846FFF75CFF601CC4B233
:1009C000285D0028F4D1BDE8F08110B50446FFF79A
:1009D000B1FE7820FFF784FE0020FFF781FE20465D
:1009E000FFF77EFEFFF7C0FE10BD10B50446FFF70F
:1009F000A1FE7820FFF774FE4020FFF771FE20462D
:100A0000FFF76EFEFFF7B0FE10BD000000B589B025
:100A10000121084600F050F80121042000F05CF8A4
:100A200018208DF823000220ADF8200003208DF857
:100A3000220008A91A48FFF71EFC4FF0804000F082
:100A400031F90020ADF81A00ADF8160044F61F6029
:100A5000ADF818004720ADF8140000208DF81C00F8
:100A600005A94FF0804000F081F901A800F072F96B
:100A70006020ADF804000020ADF80C000120ADF8B6
:100A800006000020ADF80A0001A94FF0804000F0F8
:100A90000FF90121880700F0F9F809B000BD000046
:100AA0000008014010B5044621464FF0804000F098
:100AB0005BF910BD7047000029B1064AD2690243B4
:100AC000044BDA6104E0034AD2698243014BDA61E4
:100AD000704700000010024029B1064A92690243A3
:100AE000044B9A6104E0034A92698243014B9A6184
:100AF0007047000000100240704710B5FFF786FFF6
:100B000010BD00002DE9F04104460A49204600F0DE
:100B1000A7FA8046084900F0D5FB0746074900F0D0
:100B200031FA064600F07AFB85B22846FFF7BAFF95
:100B3000BDE8F081000034430000FA440000FA43AD
:100B400010B500F001F810BD0CB500200190009028
:100B50003348006840F480303149086000BF3048B5
:100B6000006800F4003000900198401C019000984B
:100B700018B90198B0F5A06FF1D12948006800F4C8
:100B8000003010B10120009001E00020009000989A
:100B9000012843D12348006840F010002149086033
:100BA0000846006820F0030008600846006840F02E
:100BB000020008601A4840681949486008464068C1
:100BC00048600846406840F48060486008464068D5
:100BD00020F47C1048600846406840F4E810486003
:100BE0000846006840F08070086000BF0C4800684C
:100BF00000F000700028F9D00948406820F0030098
:100C0000074948600846406840F00200486000BF5D
:100C10000348406800F00C000828F9D10CBD000022
:100C200000100240002002407047000010B5134839
:100C3000006840F00100114908600846406810490A
:100C400008400E494860084600680E4908400B49B4
:100C500008600846006820F4802008600846406864
:100C600020F4FE0048604FF41F008860FFF768FF23
:100C70004FF000600449086010BD00000010024001
:100C80000000FFF8FFFFF6FE08ED00E021B102884A
:100C900042F00102028004E002884FF6FE731A401F
:100CA0000280704701894FF6F87211400181704748
:100CB00070B5002400220023058C4FF6EF763540F6
:100CC0000584028C8388048B48F6FF752C404FF610
:100CD000FF452C400D884FF6FF7606EA05252C438C
:100CE0004FF6DF752A400D8906EA05152A434D881F
:100CF00006EA05152A43154DA84202D0144DA84214
:100D00001DD14FF67F752A404D894FF6FF7606EAD2
:100D100005152A434FF6BF752A408D8806EA05154A
:100D20002A434FF6FF352B404FF2FF752B408D893C
:100D300006EA85052B43CD8906EA85052B4383808A
:100D40000483CD880587028470BD0000002C01401B
:100D5000003401400021018041808180C1800181F7
:100D600041818181C18170470187704700220288DB
:100D70001D4B98420ED01D4B98420BD0B0F1804FC6
:100D800008D01B4B984205D01A4B984202D01A4B00
:100D9000984204D14FF68F731A404B881A43174B71
:100DA000984207D0164B984204D04FF6FF431A40A2
:100DB000CB881A4302808B8883850B8803850A4B76
:100DC00098420BD0094B984208D00E4B984205D060
:100DD0000D4B984202D00D4B984201D10B7A0386FD
:100DE0000123838270470000002C01400034014041
:100DF0000004004000080040000C004000100040CB
:100E000000140040004001400044014000480140FF
:100E100000BFFEE71CB5FFF7BBFCFFF724FBFFF7A5
:100E20006CFE4DA201210846FFF7BBFDFFF716FB44
:100E30004A49087002230846027804210120FFF77E
:100E400053FD47484749086085E047484749484BB4
:100E5000484ACDE9001048494848FFF7A9FA052358
:100E60004648B0F9002001210220FFF767FD052365
:100E70004148B0F9002001210320FFF75FFD052361
:100E80003C48B0F9002001210420FFF757FD05235D
:100E90003748B0F9002008210220FFF74FFD052355
:100EA0003248B0F9002008210320FFF747FD052351
:100EB0002D48B0F9002008210420FFF73FFD2D4800
:100EC000B0F90000B0F5FA7F1FDB4FF07E512548E6
:100ED000006800F057F82349086029492148006854
:100EE00000F0BCFA02D226481E4908601D4800687E
:100EF000FFF708FE1B48006800F074F9044603235E
:100F0000224601210846FFF719FD1A48B0F90000F2
:100F100010F5FA7F1FDC4FF07E511248006800F098
:100F2000CFFA1049086000210E48006800F096F9D9
:100F300002D200200B4908600A480068FFF7E2FD72
:100F40000848006800F04EF90446032322460121B8
:100F50000846FFF7F3FC78E749443A000000002018
:100F60000000B442100000200C0000200A00002005
:100F700008000020060000200400002002000020DD
:100F80000000344390EA010F48BF81F0004100F1B6
:100F90009E82421A3CBF801A89184FEAD0524FF005
:100FA0007F4C1CEA410FA2EBD15318BF9CEA026FA1
:100FB00000F03B804FF0004C4CEA00204CEA01214D
:100FC00021FA03FC10EB0C0C1ED202F1FF325FEA97
:100FD0001C2040EBC25038BF70471CF07F0F4FEA17
:100FE000400C18BFBCF17F4F38BF7047C3F12003DE
:100FF000994008BF20F00100BCF17F4F38BF704717
:10100000A0F1C04000F025BA4FEA3C00000A40EBD6
:10101000C25028BF1CF0FF0F4FEA400CE6D018BFAB
:10102000BCF17F4F38BF7047EAE79CEA026F05D0FA
:1010300010EA5C0F08BF00F00040704710B500F0E8
:10104000C2F900BF64FBBE3E401058BFC0F1404033
:10105000491058BFC1F140418142EFF30080704711
:101060004FF47F0C1CEAD0121EBF1CEAD11392EA87
:101070000C0F93EA0C0F00F0858090EA010F48BF37
:1010800042F4807240F4000C41F400002CF07F41E7
:1010900020F07F4000B58142A2EB03020FF2081C52
:1010A000ACEB504EC0F100009EF800E04FEA4E0E4F
:1010B00000FB0EFC38BF49004FEA2C1C02F5FA0277
:1010C0000CFB0EF34FEACE1E4FEA112C4FEAC12162
:1010D0000EEB635E42EB22420EFB0CFC4FEA1C530C
:1010E00000FB03114FEA112C4FEA01310EFB0CFCFF
:1010F0004FEADC4C00FB0C11C14228BF09184CEB35
:1011000003335DF804EB10EB410143EBC250B2F541
:101110007C0F38BF704729D512F0F00F1CBF00F1CB
:10112000C04000F00040704700818283848586873C
:1011300088898B8C8D8E8F919293959697999A9C96
:101140009D9FA0A2A3A5A7A8AAACAEB0B2B3B5B705
:10115000B9BCBEC0C2C5C7C9CCCED1D4D7D9DCDFDB
:10116000E2E6E9ECF0F3F7FAFE0000004FEA400C8B
:101170000CF1807CBCF17E4F28BF7047B0F1C040BD
:1011800000F067B990EA010F0CEAD11348BF42F4AE
:101190008072624538BF634507D213F47F0F16D0C3
:1011A00080EA010000F00040704710B500F00BF934
:1011B000097EFC3E00F005B880EA010000F0004026
:1011C000704780EA010000F0004000F042B912F4DC
:1011D0007F0F04BF0248704780EA010000F039B970
:1011E0000000C07F41000B0ED3F19E0208D950F4DD
:1011F00000034FEA032323FA02F048BF404270473E
:1012000010B500F0E0F800BF49922480002070473C
:101210006FF0004282EA200070470000C10DD1F15A
:101220009E0206DB4FEA002343F0004323FA02F05C
:101230007047004207D54FEA4001B1F1FE4F02D29C
:101240004FF00000704710B500F0BDF849922480BF
:10125000002070476FEA20007047000050EA010C40
:1012600000F113801CF5000F58BFBCF5000F01D42E
:101270008842704707D710F5000F58BF11F5000FCF
:1012800015D488427047894270471CF5000F04D579
:10129000BCF5000FF7D5814270474FF0807C1CEB06
:1012A000400F38BF1CEB410F01D28142704710B58F
:1012B00000F089F8922449004FF000504FF080511F
:1012C000FFF7C2BE4FF47F0C1CEAD0121EBF1CEA0F
:1012D000D11392EA0C0F93EA0C0F00F0478090EACA
:1012E000010F48BF42F480724FF0004C4CEA0020DE
:1012F0004CEA012102EB0302A0FB0113A2F500025C
:10130000002918BF43F001035B0028BF4FEA3303F5
:1013100042EB22425FEA132C4CEBC2502EBFBCEBD7
:10132000436FB2F57C0F70474FEA036CBCF1004F7E
:1013300008BF20F00100B2F57C0F38BF70470BD515
:1013400082F0FF0212F5803FC8BF704700F1C04035
:10135000D8BF00F00040704700F5000C5FEA4C0C6D
:1013600048BF7047B0F1C04000F073B890EA010F79
:101370000CEAD11348BF42F48072624538BF63451E
:1013800004D280EA010000F00040704710B500F080
:101390001AF800BF8900013E00F007B800F009B854
:1013A0005FEA410C5FEA1C6C08D080EA010000F0A3
:1013B00050B85FEA400C5FEA1C6CF6D14FF0004079
:1013C000A0F5800070470EF1020E2EF0030E5EF8BD
:1013D000044B244204D44FEA4102B2F17F4F11D8AA
:1013E0004FEA4003B3F17F4F0CD80ED14FEAD07CC7
:1013F000B2F17F4F0CEB4C0C0CF1020C08BF4CEB24
:10140000D17C04E04FF0080C01E04FEAD17C0CEBFA
:101410004C0324FA03F404F00704B4F1040C06D2DC
:101420000EEB840CBDE810404CF0010C6047DFE887
:101430000CF0070802024FF00040A0F5800010BD3C
:101440000846420018BFD2F1807288BF00F0004009
:1014500010BDFF2141EAD050C005704751EA000C91
:1014600000F113801CF5000F58BFBCF5000F01D42C
:101470008142704707D711F5000F58BF10F5000FD4
:1014800015D481427047894270471CF5000F04D57E
:10149000BCF5000FF7D5884270474FF0807C1CEBFD
:1014A000410F38BF1CEB400F01D28842704780EAE1
:1014B000010081EA000180EA0100FFF7F8BE0000A8
:1014C00090EA010F48BF81F000413FF562AD421A3A
:1014D00004D882F00042A0EB020011444FEAD0523F
:1014E0004FF07F4C1CEA410FA2EBD15318BF9CEA8E
:1014F000026F4AD04FF0004C4CEA00204CEA012128
:1015000021FA03FCB0EB0C0C0FD412F0FE0F36D016
:101510005FEA4C001DD5001240EBC25038BF704747
:101520001CF03F0F18BF70470BE0A2F101025FEA09
:101530001C2040EBC25038BF70471CF07F0F18BF13
:101540007047C3F12003994014BF401E20F00100F2
:10155000704780084FEA122308BF7047B0FA80FC3A
:10156000A2EB0C02CCF1280C60FA0CF093EA122FDB
:1015700004BF00EBC25070474FEAC3707047130AB4
:101580005FEADC1008BF7047F6E79CEA026F04D000
:1015900010EA5C0F08BF0020704710B5FFF713FF7B
:1015A00040DFF63E81F00040704700000000000080
:1015B00000000000000000000000000000F8000033
:1015C0000000000000333000000000100C06100C7A
:1015D0000600000000000000000040C07840C07815
:1015E0004000043F04043F040400007088FC0830FD
:1015F0000000001820FF211E0000F008F000E01895
:10160000000000211C031E211E0000F0088870004D
:1016100000001E2123241927211010160E0000009F
:1016200000000000000000000000000000E01804BE
:101630000200000000071820400000020418E0002B
:1016400000000040201807000000404080F080406B
:1016500040000202010F01020200000000F0000041
:1016600000000101011F0101010000000000000055
:10167000000080B0700000000000000000000000CA
:101680000000000101010101010100000000000053
:10169000000000303000000000000000000080600A
:1016A0001804006018060100000000E0100808108F
:1016B000E000000F102020100F00001010F80000B4
:1016C00000000020203F202000000070080808884B
:1016D000700000302824222130000030088888481B
:1016E00030000018202020110E000000C02010F84B
:1016F000000000070424243F240000F8088888081C
:1017000008000019212020110E0000E01088881820
:101710000000000F112020110E0000380808C83802
:1017200008000000003F00000000007088080888E2
:101730007000001C222121221C0000E0100808106B
:10174000E0000000312222110F00000000C0C000A4
:1017500000000000003030000000000000800000A9
:1017600000000000806000000000000080402010A9
:1017700008000001020408102000404040404040A2
:101780004000040404040404040000081020408005
:10179000000000201008040201000070480808083A
:1017A000F0000000003036010000C030C828E8100A
:1017B000E0000718272423140B000000C038E000C5
:1017C0000000203C23020227382008F8888888700F
:1017D0000000203F202020110E00C030080808081B
:1017E0003800071820202010080008F80808081002
:1017F000E000203F202020100F0008F88888E8082B
:101800001000203F20202320180008F88888E808CE
:101810001000203F200003000000C03008080838F6
:10182000000007182020221E020008F80800000807
:10183000F808203F210101213F20000808F808088E
:1018400000000020203F2020000000000808F808C9
:101850000800C08080807F00000008F888C0281839
:101860000800203F20012638200008F8080000006A
:101870000000203F20202020300008F8F800F8F871
:101880000800203F003F003F200008F830C000085B
:10189000F808203F200007183F00E0100808081053
:1018A000E0000F10202020100F0008F8080808089A
:1018B000F000203F210101010000E010080808109D
:1018C000E0000F18242438504F0008F888888888D2
:1018D0007000203F2000030C3020007088080808AA
:1018E00038000038202121221C00180808F80808B8
:1018F00018000000203F2000000008F80800000841
:10190000F808001F202020201F000878880000C849
:101910003808000007380E010000F80800F8000839
:10192000F800033C0700073C030008186880806843
:10193000180820302C03032C30200838C800C83881
:1019400008000000203F2000000010080808C838E8
:1019500008002038262120201800000000FE020286
:1019600002000000007F40404000000C30C000003A
:101970000000000000010638C00000020202FE0064
:101980000000004040407F0000000000040202020E
:101990000400000000000000000000000000000043
:1019A000000080808080808080800002020400002F
:1019B0000000000000000000000000008080808027
:1019C00000000019242222223F2008F80080800015
:1019D0000000003F112020110E00000000808080D8
:1019E0000000000E112020201100000000808088DF
:1019F000F800000E112020103F2000008080808021
:101A00000000001F222222221300008080F088881C
:101A100088180020203F2020000000008080808067
:101A20008000006B94949493600008F8008080809C
:101A30000000203F210000203F20008098980000F7
:101A400000000020203F2020000000000080989827
:101A5000000000C08080807F000008F800008080C7
:101A60008000203F24022D302000000808F80000EC
:101A700000000020203F20200000808080808080A7
:101A80008000203F20003F20003F80800080808039
:101A90000000203F210000203F2000008080808047
:101AA0000000001F202020201F0080800080800078
:101AB000000080FFA12020110E0000000080808027
:101AC0008000000E112020A0FF8080808000808098
:101AD000800020203F2120000100000080808080C5
:101AE00080000033242424241900008080E08080BA
:101AF00000000000001F2020000080800000008007
:101B00008000001F202020103F2080808000008067
:101B1000808000010E300806010080800080008077
:101B200080800F300C030C300F000080800080801C
:101B300080000020312E0E31200080808000008047
:101B4000808080818E7018060100008080808080F7
:101B500080000021302C2221300000000000807C19
:101B6000020200000000003F404000000000FF00B3
:101B7000000000000000FF0000000002027C800066
:101B800000000040403F000000000006010102028A
:101B9000040400000000000000000000BC1B00085E
:101BA000000000201400000028010008D01B0008DD
:101BB000140000206406000044010008000000003A
:101BC0000000000000000000000000000000000015
:04000005080000ED02
:00000001FF
